:100000000C945D000C9485000C9485000C94850084
:100010000C9485000C9485000C9485000C9485004C
:100020000C9485000C9485000C9485000C9485003C
:100030000C9485000C9485000C9485000C9485002C
:100040000C94A0040C9485000C9410050C94EA0404
:100050000C9485000C9485000C9485000C9485000C
:100060000C9485000C94850000000008000201003B
:100070000003040700000000000000000000000072
:10008000250028002B0000000000240027002A0083
:10009000040404040404040402020202020203032E
:1000A0000303030301020408102040800102040836
:1000B0001020010204081020420511241FBECFEFBA
:1000C000D8E0DEBFCDBF11E0A0E0B1E0EEEEFDE094
:1000D00002C005900D92AA36B107D9F722E0AAE630
:1000E000B1E001C01D92AD36B207E1F710E0CDE5F9
:1000F000D0E004C02197FE010E94EF06CC35D10765
:10010000C9F70E948C050C94F5060C94000090E051
:10011000FC01EC55FF4F249180579F4FFC018491C7
:10012000882399F090E0880F991FFC01EA57FF4F50
:10013000A591B491FC01E458FF4F859194918FB73C
:10014000F894EC91E22BEC938FBF089590E0FC01C2
:10015000E859FF4F2491FC01EC55FF4F3491FC010D
:10016000E057FF4FE491EE23C9F0222339F023300A
:1001700001F1A8F4213019F1223029F1F0E0EE0F5D
:10018000FF1FE458FF4FA591B4918FB7F894EC91FD
:10019000611126C030953E233C938FBF08952730D0
:1001A000A9F02830C9F0243049F7809180008F7D74
:1001B00003C0809180008F7780938000DFCF84B56B
:1001C0008F7784BDDBCF84B58F7DFBCF8091B0006E
:1001D0008F778093B000D2CF8091B0008F7DF9CF20
:1001E0003E2BDACF3FB7F8948091B4019091B501DE
:1001F000A091B601B091B70126B5A89B05C02F3FCD
:1002000019F00196A11DB11D3FBFBA2FA92F982F3C
:100210008827BC01CD01620F711D811D911D42E037
:10022000660F771F881F991F4A95D1F708958F92FF
:100230009F92AF92BF92CF92DF92EF92FF924B01CB
:100240005C010E94F2006B017C010E94F2006C19BB
:100250007D098E099F09683E734081059105A8F3C9
:1002600021E0821A9108A108B10888EEC80E83E047
:10027000D81EE11CF11C81149104A104B10429F7DA
:10028000FF90EF90DF90CF90BF90AF909F908F90B6
:100290000895FC01538D448D252F30E0842F90E08C
:1002A000821B930B541710F0CF9608950197089571
:1002B000FC01918D828D981761F0A28DAE0FBF2F3A
:1002C000B11D5D968C91928D9F5F9F73928F90E090
:1002D00008958FEF9FEF0895FC01918D828D9817FF
:1002E00031F0828DE80FF11D858D90E008958FEF3C
:1002F0009FEF0895FC01918D228D892F90E0805C05
:100300009F4F821B91098F739927089588EB91E085
:100310000E947A0121E0892B09F420E0822F0895C0
:10032000FC01A48DA80FB92FB11DA35ABF4F2C916A
:10033000848D90E001968F739927848FA689B78961
:100340002C93A089B1898C91837080648C93938D58
:10035000848D981306C00288F389E02D80818F7DFB
:1003600080830895EF92FF920F931F93CF93DF93B3
:10037000EC0181E0888F9B8D8C8D98131AC0E889E1
:10038000F989808185FF15C09FB7F894EE89FF89B0
:100390006083E889F98980818370806480839FBF4E
:1003A00081E090E0DF91CF911F910F91FF90EF904E
:1003B0000895F62E0B8D10E00F5F1F4F0F7311275E
:1003C000E02E8C8D8E110CC00FB607FCFACFE88999
:1003D000F989808185FFF5CFCE010E949001F1CF90
:1003E000EB8DEC0FFD2FF11DE35AFF4FF0829FB70D
:1003F000F8940B8FEA89FB8980818062CFCFCF93FD
:10040000DF93EC01888D8823B9F0AA89BB89E8893C
:10041000F9898C9185FD03C0808186FD0DC00FB6E2
:1004200007FCF7CF8C9185FFF2CF808185FFEDCF60
:10043000CE010E949001E9CFDF91CF910895AF9254
:10044000BF92CF92DF92EF92FF920F931F93CF93C1
:10045000DF936C017B018B01040F151FEB015E0123
:10046000AE18BF08C017D10759F06991D601ED91B8
:10047000FC910190F081E02DC6010995892B79F757
:10048000C501DF91CF911F910F91FF90EF90DF9009
:10049000CF90BF90AF900895089590E080E00895C8
:1004A000CF93DF93EC0160E08E810E94A60061E0B3
:1004B0008E810E94A60060E08E810E94A6008BE8DB
:1004C00091E00197F1F7DF91CF910895CF92DF92FC
:1004D000EF92FF920F931F93CF93DF936C017C01F8
:1004E00087E0E80EF11CD0E0C0E0062F10E0B80174
:1004F0000C2E02C0759567950A94E2F76170F701BA
:1005000081917F010E94A6002196C430D10579F720
:10051000C601DF91CF911F910F91FF90EF90DF9077
:10052000CF900C945002CF92DF92EF92FF920F93F4
:100530001F93CF93DF93EC01F62E642F8C810E94E2
:10054000A6008D818F3F19F060E00E94A6000F2D5C
:1005500010E08F8584FF25C06E0187E0C80ED11C96
:10056000F12CE12CB8010E2C02C0759567950A9408
:10057000E2F76170F60181916F010E94A600FFEF22
:10058000EF1AFF0A88E0E816F10461F7CE01DF9167
:10059000CF911F910F91FF90EF90DF90CF900C942F
:1005A0005002B80184E0759567958A95E1F7CE0110
:1005B0000E9466026F2DCE01DF91CF911F910F91A6
:1005C000FF90EF90DF90CF900C94660240E0682F90
:1005D00085E592E00C94930281E00E94E6028BE3B1
:1005E0009FE10197F1F70895CF93DF93823029F4CB
:1005F00090916402986090936402809368021092D4
:10060000690280E480936A0280E180936B0280E556
:1006100080936C02809159020E94870080915A0257
:100620008F3F11F00E94870080915B020E9487003B
:10063000C5E5D2E09E01255532408091640284FDDB
:100640000AC084E090E02196281739073CF48E8197
:100650000E948700EFCF88E090E0F5CF8BE39DE02C
:100660000197F1F760E0809159020E94A60060E0D6
:1006700080915B020E94A60080915A028F3F19F080
:1006800060E00E94A6008091640284FD34C063E0B3
:1006900085E592E00E946602CBE4D6E4CE010197A4
:1006A000F1F763E085E592E00E9466022197F1F799
:1006B00063E085E592E00E94660283E592E001979F
:1006C000F1F762E085E592E00E94660280916402A3
:1006D00080620E94E60284E0809365028CE00E94C2
:1006E000E6020E94EC0282E08093660286E0DF91DF
:1006F000CF910C94E60280620E94E6028BE496E4BD
:100700000197F1F78091640280620E94E60283E51E
:1007100092E00197F1F78091640280620E94E60204
:10072000D5CF90916802691710F06FEF690FE62F2F
:10073000F0E0EB5AFD4F9489890F80680C94E60233
:1007400041E00E94930281E090E00895FB01019056
:100750000020E9F73197AF01461B570BDC01ED9103
:10076000FC910280F381E02D09944F925F926F9289
:100770007F92AF92BF92CF92DF92EF92FF920F9350
:100780001F93CF93DF93CDB7DEB7A1970FB6F89441
:10079000DEBF0FBECDBF5C016A017B01F7FE47C023
:1007A000DC01ED91FC910190F081E02D6DE2099565
:1007B0008C0122273327A9012C193D094E095F0915
:1007C00019A2FE01B1967F019AE0492E512C612CAD
:1007D000712CCA01B901A30192010E94CD06605D8E
:1007E000D7016E937D01211531054105510589F72A
:1007F00090E080E0109721F0BD01C5010E94A603A2
:10080000800F911FA1960FB6F894DEBF0FBECDBF2B
:10081000DF91CF911F910F91FF90EF90DF90CF90DC
:10082000BF90AF907F906F905F904F900895AB0115
:10083000960119A28E010F5D1F4F8AE0C82ED12CA0
:10084000E12CF12CCA01B901A70196010E94CD0645
:10085000605DF80162938F01211531054105510555
:1008600089F790E080E0309769F2BF01C5010E94EE
:10087000A603C8CFFF920F931F93CF93DF930E94DD
:10088000EC026EE171E085E592E00E94A60388EB40
:1008900091E00E947A0190936B0180936A0161E07C
:1008A00080E00E9491036DE271E085E592E00E9494
:1008B000A60310926D0110926C01CEE6D1E0FF24E8
:1008C000F39400916A0110916B011016110664F502
:1008D00062E08FE00E949103A801110F660B770B75
:1008E00085E592E00E94B50362E370E080E090E06D
:1008F0000E94170188EB91E00E945801899388EBD0
:1009000091E00E947A0190936B0180936A019E01AD
:100910002E563140892BA9F6188230936D01209311
:100920006C01F092AE01CDCFDF91CF911F910F916D
:10093000FF9008950E94860181110C943A04089555
:100940001F920F920FB60F9211242F933F938F9304
:100950009F93AF93BF938091B0019091B101A0910B
:10096000B201B091B3013091AF0123E0230F2D37D5
:1009700058F50196A11DB11D2093AF018093B001E0
:100980009093B101A093B201B093B3018091B401EF
:100990009091B501A091B601B091B7010196A11D4A
:1009A000B11D8093B4019093B501A093B601B093AB
:1009B000B701BF91AF919F918F913F912F910F9070
:1009C0000FBE0F901F90189526E8230F0296A11DC9
:1009D000B11DD2CF1F920F920FB60F9211242F93F9
:1009E0003F934F935F936F937F938F939F93AF93B7
:1009F000BF93EF93FF9388EB91E00E949001FF91EA
:100A0000EF91BF91AF919F918F917F916F915F9186
:100A10004F913F912F910F900FBE0F901F901895FF
:100A20001F920F920FB60F9211242F938F939F93C3
:100A3000EF93FF93E091C801F091C9018081E091AB
:100A4000CE01F091CF0182FD1BC090818091D10138
:100A50008F5F8F732091D201821741F0E091D10115
:100A6000F0E0E854FE4F958F8093D101FF91EF9114
:100A70009F918F912F910F900FBE0F901F901895FF
:100A80008081F4CFE8EBF1E01382128288EE93E0EC
:100A9000A0E0B0E084839583A683B78384E091E0EF
:100AA0009183808385EC90E09587848784EC90E047
:100AB0009787868780EC90E0918B808B81EC90E02B
:100AC000938B828B82EC90E0958B848B86EC90E00C
:100AD000978B868B118E128E138E148EE5E5F2E0C5
:100AE0001382128286E191E0918380838CE084837B
:100AF0008FEF85838BE0868385E0878384E0808722
:100B000083E0818782E082871386148615861686A5
:100B1000178681E00C94F402789484B5826084BDD9
:100B200084B5816084BD85B5826085BD85B58160F1
:100B300085BD80916E00816080936E00109281006F
:100B4000809181008260809381008091810081602A
:100B500080938100809180008160809380008091EB
:100B6000B10084608093B1008091B0008160809377
:100B7000B00080917A00846080937A0080917A003E
:100B8000826080937A0080917A00816080937A00FD
:100B900080917A00806880937A001092C10082E090
:100BA0000E94F4026BE371E085E592E00E94A603E7
:100BB00061E080E00E94910366E471E085E592E0E7
:100BC0000E94A6036AE070E080E090E00E941701B6
:100BD000E091C801F091C90182E08083E091C401F5
:100BE000F091C5011082E091C601F091C7018FEC30
:100BF00080831092D001E091CC01F091CD0186E08C
:100C00008083E091CA01F091CB0180818061808373
:100C1000E091CA01F091CB01808188608083E091EE
:100C2000CA01F091CB01808180688083E091CA0184
:100C3000F091CB0180818F7D80830EE611E090E101
:100C4000E92EF12C8091AE01882309F49EC00E9408
:100C5000EC0260E080E00E94910361E571E085E5CF
:100C600092E00E94A60361E080E10E94910366E9A0
:100C700070E080E090E00E94170180916602982F5A
:100C800091609093660285600E94E602E8010990F7
:100C90000020E9F7CF56D1408EE6C82E81E0D82E4D
:100CA000F80101900020E9F7CF018F56914096019D
:100CB0002E5631402817390778F4F60161916F01FB
:100CC00041E085E592E00E94930266E970E080E0F1
:100CD00090E00E941701E4CFC031D105C8F4D12CB7
:100CE000C12CC7018C1B9D0BEC01CC16DD0680F4DA
:100CF0006EE571E085E592E00E94A60366E970E08A
:100D000080E090E00E9417019FEFC91AD90AEDCF49
:100D1000809166028E7F8093660284600E94E60264
:100D200064EF71E080E090E00E94170140916C0157
:100D300050916D01052E000C660B770B88EB91E04E
:100D40000E94B5036C0160E671E088EB91E00E94BF
:100D5000A603EC010E94EC0263E671E085E592E0F7
:100D60000E94A603AE014C0D5D1D052E000C660B06
:100D7000770B85E592E00E94B50364EF71E080E0B7
:100D800090E00E9417011092AE010E948601882314
:100D900009F458CF0E943A0455CFA1E21A2EAA1B9B
:100DA000BB1BFD010DC0AA1FBB1FEE1FFF1FA2171B
:100DB000B307E407F50720F0A21BB30BE40BF50B18
:100DC000661F771F881F991F1A9469F760957095A1
:100DD000809590959B01AC01BD01CF010895EE0F68
:0E0DE000FF1F0590F491E02D0994F894FFCFC9
:100DEE0000000000B2011F024901FF017A01580103
:100DFE006C0100000000A0031F024D024C0273653F
:100E0E007269616C4576656E742E2E2E0062797451
:100E1E00657320617661696C3A20004C4344207200
:100E2E00656164792E0077616974696E672E2E2E66
:100E3E00006D73672072656365697665643A20009C
:0A0E4E000D0A0073656E743A20006F
:00000001FF
