:100000000C945D000C9485000C9485000C94850084
:100010000C9485000C9485000C9485000C9485004C
:100020000C9485000C9485000C9485000C9485003C
:100030000C9485000C9485000C9485000C9485002C
:100040000C94BA030C9485000C942A040C940404B8
:100050000C9485000C9485000C9485000C9485000C
:100060000C9485000C94850000000008000201003B
:100070000003040700000000000000000000000072
:10008000250028002B0000000000240027002A0083
:10009000040404040404040402020202020203032E
:1000A0000303030301020408102040800102040836
:1000B00010200102040810205C0411241FBECFEFA1
:1000C000D8E0DEBFCDBF11E0A0E0B1E0EEE4FCE09F
:1000D00002C005900D92AE33B107D9F722E0AEE32E
:1000E000B1E001C01D92A230B207E1F710E0CDE50A
:1000F000D0E004C02197FE010E941F06CC35D10735
:10010000C9F70E94A6040C9425060C94000090E008
:10011000FC01EC55FF4F249180579F4FFC018491C7
:10012000882399F090E0880F991FFC01EA57FF4F50
:10013000A591B491FC01E458FF4F859194918FB73C
:10014000F894EC91E22BEC938FBF089590E0FC01C2
:10015000E859FF4F2491FC01EC55FF4F3491FC010D
:10016000E057FF4FE491EE23C9F0222339F023300A
:1001700001F1A8F4213019F1223029F1F0E0EE0F5D
:10018000FF1FE458FF4FA591B4918FB7F894EC91FD
:10019000611126C030953E233C938FBF08952730D0
:1001A000A9F02830C9F0243049F7809180008F7D74
:1001B00003C0809180008F7780938000DFCF84B56B
:1001C0008F7784BDDBCF84B58F7DFBCF8091B0006E
:1001D0008F778093B000D2CF8091B0008F7DF9CF20
:1001E0003E2BDACF3FB7F8948091490190914A01B4
:1001F000A0914B01B0914C0126B5A89B05C02F3FA3
:1002000019F00196A11DB11D3FBFBA2FA92F982F3C
:100210008827BC01CD01620F711D811D911D42E037
:10022000660F771F881F991F4A95D1F708958F92FF
:100230009F92AF92BF92CF92DF92EF92FF924B01CB
:100240005C010E94F2006B017C010E94F2006C19BB
:100250007D098E099F09683E734081059105A8F3C9
:1002600021E0821A9108A108B10888EEC80E83E047
:10027000D81EE11CF11C81149104A104B10429F7DA
:10028000FF90EF90DF90CF90BF90AF909F908F90B6
:100290000895FC01538D448D252F30E0842F90E08C
:1002A000821B930B541710F0CF9608950197089571
:1002B000FC01918D828D981761F0A28DAE0FBF2F3A
:1002C000B11D5D968C91928D9F5F9F73928F90E090
:1002D00008958FEF9FEF0895FC01918D828D9817FF
:1002E00031F0828DE80FF11D858D90E008958FEF3C
:1002F0009FEF0895FC01918D228D892F90E0805C05
:100300009F4F821B91098F73992708958DE491E087
:100310000E947A0121E0892B09F420E0822F0895C0
:1003200080E090E0892B29F00E94860181110C94D5
:1003300000000895FC01A48DA80FB92FB11DA35A88
:10034000BF4F2C91848D90E001968F739927848FF5
:10035000A689B7892C93A089B1898C918370806418
:100360008C93938D848D981306C00288F389E02DB9
:1003700080818F7D80830895EF92FF920F931F936A
:10038000CF93DF93EC0181E0888F9B8D8C8D981348
:100390001AC0E889F989808185FF15C09FB7F89454
:1003A000EE89FF896083E889F989808183708064A0
:1003B00080839FBF81E090E0DF91CF911F910F91EB
:1003C000FF90EF900895F62E0B8D10E00F5F1F4FFA
:1003D0000F731127E02E8C8D8E110CC00FB607FC09
:1003E000FACFE889F989808185FFF5CFCE010E9497
:1003F0009A01F1CFEB8DEC0FFD2FF11DE35AFF4F6A
:10040000F0829FB7F8940B8FEA89FB898081806224
:10041000CFCFCF93DF93EC01888D8823B9F0AA89E1
:10042000BB89E889F9898C9185FD03C0808186FDAF
:100430000DC00FB607FCF7CF8C9185FFF2CF8081FE
:1004400085FFEDCFCE010E949A01E9CFDF91CF91D8
:100450000895AF92BF92CF92DF92EF92FF920F93E7
:100460001F93CF93DF936C017B018B01040F151F4A
:10047000EB015E01AE18BF08C017D10759F06991B2
:10048000D601ED91FC910190F081E02DC601099516
:10049000892B79F7C501DF91CF911F910F91FF90C3
:1004A000EF90DF90CF90BF90AF900895089590E0C7
:1004B00080E00895FC0101900020E9F73197AF0139
:1004C000481B590BBC018AEE91E00C942902CF9392
:1004D000DF93EC0160E08E810E94A60061E08E81D6
:1004E0000E94A60060E08E810E94A6008BE891E049
:1004F0000197F1F7DF91CF910895CF92DF92EF92BC
:10050000FF920F931F93CF93DF936C017C0187E0E1
:10051000E80EF11CD0E0C0E0062F10E0B8010C2E70
:1005200002C0759567950A94E2F76170F7018191B1
:100530007F010E94A6002196C430D10579F7C6013B
:10054000DF91CF911F910F91FF90EF90DF90CF90AF
:100550000C946702CF92DF92EF92FF920F931F935A
:10056000CF93DF93EC01F62E642F8C810E94A600BE
:100570008D818F3F19F060E00E94A6000F2D10E0E2
:100580008F8584FF25C06E0187E0C80ED11CF12C39
:10059000E12CB8010E2C02C0759567950A94E2F71C
:1005A0006170F60181916F010E94A600FFEFEF1AC2
:1005B000FF0A88E0E816F10461F7CE01DF91CF91E0
:1005C0001F910F91FF90EF90DF90CF900C946702F6
:1005D000B80184E0759567958A95E1F7CE010E9490
:1005E0007D026F2DCE01DF91CF911F910F91FF9072
:1005F000EF90DF90CF900C947D0240E0682F8AEE60
:1006000091E00C94AA02CF93DF93823029F4909169
:10061000F90198609093F9018093FD011092FE0119
:1006200080E48093FF0180E18093000280E5809365
:1006300001028091EE010E9487008091EF018F3FBF
:1006400011F00E9487008091F0010E948700CAEE9D
:10065000D1E09E012A5E31408091F90184FD0AC0FB
:1006600084E090E02196281739073CF48E810E949F
:100670008700EFCF88E090E0F5CF8BE39DE0019716
:10068000F1F760E08091EE010E94A60060E08091A9
:10069000F0010E94A6008091EF018F3F19F060E009
:1006A0000E94A6008091F90184FD39C063E08AEEC2
:1006B00091E00E947D02CBE4D6E4CE010197F1F7F0
:1006C00063E08AEE91E00E947D022197F1F763E0FA
:1006D0008AEE91E00E947D0283E592E00197F1F7B6
:1006E00062E08AEE91E00E947D028091F9018062D1
:1006F0000E94FD0284E08093FA018CE00E94FD02DA
:1007000081E00E94FD028BE39FE10197F1F782E017
:100710008093FB0186E0DF91CF910C94FD02806213
:100720000E94FD028BE496E40197F1F78091F901B4
:1007300080620E94FD0283E592E00197F1F78091CB
:10074000F90180620E94FD02D0CF9091FD016917EE
:1007500010F06FEF690FE62FF0E0E651FE4F94893D
:10076000890F80680C94FD0241E00E94AA0281E09A
:1007700090E008951F920F920FB60F9211242F93BD
:100780003F938F939F93AF93BF9380914501909137
:100790004601A0914701B09148013091440123E006
:1007A000230F2D3758F50196A11DB11D209344014B
:1007B0008093450190934601A0934701B09348016F
:1007C0008091490190914A01A0914B01B0914C0157
:1007D0000196A11DB11D8093490190934A01A093F8
:1007E0004B01B0934C01BF91AF919F918F913F917D
:1007F0002F910F900FBE0F901F90189526E8230F92
:100800000296A11DB11DD2CF1F920F920FB60F926B
:1008100011242F933F934F935F936F937F938F9305
:100820009F93AF93BF93EF93FF938DE491E00E946A
:100830009A01FF91EF91BF91AF919F918F917F911D
:100840006F915F914F913F912F910F900FBE0F903D
:100850001F9018951F920F920FB60F9211242F938D
:100860008F939F93EF93FF93E0915D01F0915E0171
:100870008081E0916301F091640182FD1BC0908151
:10088000809166018F5F8F7320916701821741F01D
:10089000E0916601F0E0E35BFE4F958F8093660187
:1008A000FF91EF919F918F912F910F900FBE0F901D
:1008B0001F9018958081F4CFEDE4F1E0138212824D
:1008C00088EE93E0A0E0B0E084839583A683B783AD
:1008D00084E091E09183808385EC90E09587848724
:1008E00084EC90E09787868780EC90E0918B808BFA
:1008F00081EC90E0938B828B82EC90E0958B848BE3
:1009000086EC90E0978B868B118E128E138E148E50
:10091000EAEEF1E01382128286E191E09183808316
:100920008CE084838FEF85838BE0868385E08783EB
:1009300084E0808783E0818782E082871386148643
:1009400015861686178681E00C940303CF93DF93F8
:10095000CDB7DEB7A1970FB6F894DEBF0FBECDBFFF
:10096000789484B5826084BD84B5816084BD85B58A
:10097000826085BD85B5816085BD80916E00816096
:1009800080936E001092810080918100826080933C
:10099000810080918100816080938100809180003E
:1009A0008160809380008091B10084608093B10069
:1009B0008091B00081608093B00080917A00846063
:1009C00080937A0080917A00826080937A0080918F
:1009D0007A00816080937A0080917A0080688093A9
:1009E0007A001092C10082E00E9403038EE191E040
:1009F0000E945A026CE271E080E090E00E941701D0
:100A0000E0915D01F0915E0182E08083E091590107
:100A1000F0915A011082E0915B01F0915C018FEC42
:100A2000808310926501E0916101F091620186E09E
:100A30008083E0915F01F09160018081806180831B
:100A4000E0915F01F0916001808188608083E09196
:100A50005F01F0916001808180688083E0915F0197
:100A6000F091600180818F7D80839AE0492E512C26
:100A7000612C712C20E0822E20E0922E8DE491E0FA
:100A80000E947A018C018EE3E82E81E0F82E312C51
:100A900080914301101611060CF060C081115EC0F8
:100AA0008DE491E00E945801F70180836CE271E0CF
:100AB00080E090E00E94170162E0832D0E94A50370
:100AC00041E0F70160818AEE91E00E94AA028DE484
:100AD00091E00E947A018C016CE271E080E090E08C
:100AE0000E94170162E08DE00E94A5035801012ECB
:100AF000000CCC08DD08D7FE6AC041E06DE28AEE4A
:100B000091E00E94AA0222273327A9012A193B0952
:100B10004C095D0919A2CE0181966C01CA01B90187
:100B2000A30192010E94FD05605DF60162936F01D1
:100B3000211531054105510589F7C114D10419F07A
:100B4000C6010E945A02FFEFEF1AFF0A3394011503
:100B5000110509F09DCF81E080934301109242017D
:100B60008091430181110DC061E00E94A5038BE2D9
:100B700091E00E945A0264EF71E080E090E00E94F0
:100B80001701809143018823B1F061E080E00E9469
:100B9000A50386E391E00E945A0261E087E00E948B
:100BA000A5038EE391E00E945A0264EF71E080E0B9
:100BB00090E00E9417018114910409F45FCF0E9414
:100BC0008601882309F45ACF0E94000057CFA6015E
:100BD000950119A2CE0181966C01CA01B901A30148
:100BE00092010E94FD05605DF60162936F0121157F
:100BF00031054105510589F7A0CFA1E21A2EAA1BA4
:100C0000BB1BFD010DC0AA1FBB1FEE1FFF1FA217BC
:100C1000B307E407F50720F0A21BB30BE40BF50BB9
:100C2000661F771F881F991F1A9469F76095709542
:100C3000809590959B01AC01BD01CF010895EE0F09
:0E0C4000FF1F0590F491E02D0994F894FFCF6A
:100C4E0000000000BC012902490109027A01580185
:100C5E006C0100000000B4032902570256024C43F7
:100C6E00442072656164792E2E2E00776169746955
:0E0C7E006E672E2E200066696E616C3A2000B3
:00000001FF
